:100000000C945D000C9485000C9485000C94850084
:100010000C9485000C9485000C9485000C9485004C
:100020000C9485000C9485000C9485000C9485003C
:100030000C9485000C9485000C9485000C9485002C
:100040000C94AE040C9485000C9485000C948500EF
:100050000C9485000C9485000C9485000C9485000C
:100060000C9485000C94850000000008000201003B
:100070000003040700000000000000000102040863
:100080001020408001020408102001020408102002
:10009000040404040404040402020202020203032E
:1000A0000303030300000000250028002B000000CC
:1000B0000000240027002A00C50111241FBECFEF35
:1000C000D8E0DEBFCDBF11E0A0E0B1E0E4EFFCE09E
:1000D00002C005900D92A036B107D9F721E0A0E645
:1000E000B1E001C01D92A138B207E1F710E0CAEB00
:1000F000D0E004C02297FE010E947406C83BD107DD
:10010000C9F70E9422060C9478060C94000020E0A7
:1001100042E060E180E691E00E948D0340E251E020
:1001200060E080E691E00E946E0448E151E061E009
:1001300080E691E00E946E0440E151E062E080E6DA
:1001400091E00E946E0448E051E063E080E691E0B7
:100150000E946E0440E051E064E080E691E00C947F
:100160006E0440E061E080E691E00E94730368E283
:1001700071E080E691E00E946F0668EC70E080E03C
:1001800090E00E941B056AE271E080E691E00E9427
:100190006F0668EC70E080E090E00E941B056CE266
:1001A00071E080E691E00E946F0668EC70E080E00C
:1001B00090E00E941B056CE271E080E691E00E94F5
:1001C0006F0668EC70E080E090E00E941B056EE234
:1001D00071E080E691E00E946F0668EC70E080E0DC
:1001E00090E00E941B0560E371E080E691E00E94D0
:1001F0006F0668EC70E080E090E00E941B0562E30F
:1002000071E080E691E00E946F0668EC70E080E0AB
:1002100090E00E941B0564E371E080E691E00E949B
:100220006F0668EC70E080E090E00E941B0566E3DA
:1002300071E080E691E00E946F0668EC70E080E07B
:1002400090E00E941B0568E371E080E691E00E9467
:100250006F0668EC70E080E090E00E941B0568E2A9
:1002600071E080E691E00E946F0668EC70E080E04B
:1002700090E00E941B056AE371E080E691E00E9435
:100280006F0668EC70E080E090E00E941B056AE277
:1002900071E080E691E00E946F0668EC70E080E01B
:1002A00090E00E941B056EE271E080E691E00E9402
:1002B0006F0668EC70E080E090E00E941B0541E072
:1002C00064E080E691E00E9473036AE271E080E6F8
:1002D00091E00E946F0668EC70E080E090E00E9480
:1002E0001B056CE371E080E691E00E946F0668EC0C
:1002F00070E080E090E00E941B056AE271E080E619
:1003000091E00E946F0668EC70E080E090E00E944F
:100310001B056EE371E080E691E00E946F0668ECD9
:1003200070E080E090E00E941B056AE371E080E6E7
:1003300091E00E946F0668EC70E080E090E00E941F
:100340001B056AE271E080E691E00E946F0668ECAE
:1003500070E080E090E00E941B0566E571E080E6B9
:1003600091E00E946F0668EC70E080E090E00E94EF
:100370001B0566E571E080E691E00E946F0668EC7F
:1003800070E080E090E00C941B05CF92EF920F9309
:1003900082E0C82E93E0E92E04E025E04BE06CE01B
:1003A00080E691E00E9448040F91EF90CF9008956D
:1003B00040E061E080E691E00E94730360E471E058
:1003C00080E691E00E946F0641E064E080E691E003
:1003D0000E9473036FE471E080E691E00E946F0673
:1003E00041E062E080E691E00E94730360E080E615
:1003F00091E00E94A80441E06DE080E691E00E9457
:10040000730360E080E691E00E94A80441E060E0B0
:1004100080E691E00E94730363E080E691E00E9431
:10042000A80441E06FE080E691E00E94730364E07D
:1004300080E691E00E94A80464EF71E080E090E023
:100440000E941B0541E060E080E691E00E9473039A
:1004500064E080E691E00E94A80441E06FE080E65D
:1004600091E00E94730363E080E691E00E94A8049B
:1004700064EF71E080E090E00E941B05C7CFFF921F
:100480000F931F93CF93DF93C0E01FE002E1D0E111
:1004900040E06C2F80E691E00E9473038C2F817006
:1004A000F82EC0FF02C064E001C063E080E691E086
:1004B0000E94A804C33060F040E06DEF6C0F80E64E
:1004C00091E00E94730360E080E691E00E94A8043E
:1004D00041E0612F6C1B80E691E00E947303FF20D6
:1004E00011F063E001C064E080E691E00E94A8049E
:1004F000C33068F041E0602F6C1B80E691E00E9401
:10050000730360E080E691E00E94A80402C0CC235F
:1005100039F040E06FEF6C0F80E691E00E947303CA
:1005200060E371E080E691E00E946F066D2F6C1B26
:1005300041E080E691E00E94730360E371E080E6B1
:1005400091E00E946F0660E971E080E090E00E9417
:100550001B05CF5FC03109F09BCFDF91CF911F9179
:100560000F91FF9008950E943F0280E691E00E9463
:100570006C030E94B10064EF71E080E090E00E94A3
:100580001B050E94D801CF93DF93EC0160E08E81C0
:100590000E94EB0581E090E00E94430561E08E81BE
:1005A0000E94EB0581E090E00E94430560E08E81AF
:1005B0000E94EB0584E690E0DF91CF910C94430517
:1005C000CF92DF92EF92FF920F931F93CF93DF931F
:1005D0007C01C0E0D0E0C62ED12C87010C0F1D1F7E
:1005E00061E0F80187810E94B205B6010C2E02C0BD
:1005F000759567950A94E2F76170F80187810E940A
:10060000EB052196C430D10541F7C701DF91CF91A9
:100610001F910F91FF90EF90DF90CF900C94C30249
:10062000CF92DF92EF92FF920F931F93CF93DF93BE
:100630007C01C0E0D0E0C62ED12C87010C0F1D1F1D
:1006400061E0F80187810E94B205B6010C2E02C05C
:10065000759567950A94E2F76170F80187810E94A9
:10066000EB052196C830D10541F7C701DF91CF9145
:100670001F910F91FF90EF90DF90CF900C94C302E9
:100680001F93CF93DF93EC01162F642F8C810E9470
:10069000EB058D818F3F19F060E00E94EB058F859F
:1006A000612F84FF06C0CE01DF91CF911F910C9482
:1006B000100370E084E0759567958A95E1F7CE01A7
:1006C0000E94E002612FCE01DF91CF911F910C9427
:1006D000E00240E00C94400361E00E94690380ED79
:1006E00097E00C944305443008F043E0FC01238973
:1006F000421710F04FEF420FFC01E40FF11D248967
:10070000260F2068622F0C946903FC016089262F54
:100710002460208B6C600C946903CF93DF93EC0111
:10072000423018F08F8588608F874B8B1C8A80E45D
:100730008D8B6E8B70E0605C7F4F6F8B222329F076
:10074000413019F48F8584608F8780E593EC0E9497
:10075000430560E08C810E94EB0560E08E810E9481
:10076000EB058D818F3F19F060E00E94EB056F85EE
:1007700064FD1DC063E0CE010E94E00284E991E1C6
:100780000E94430563E0CE010E94E00284E991E10A
:100790000E94430563E0CE010E94E00286E990E0FA
:1007A0000E94430562E0CE010E94E00216C0606232
:1007B000CE010E94690384E991E10E9443056F859F
:1007C0006062CE010E94690386E990E00E944305C1
:1007D0006F856062CE010E9469036F856062CE0101
:1007E0000E94690384E0888BCE010E948503CE01BC
:1007F0000E946C0382E0898B66E0CE01DF91CF918D
:100800000C9469036F927F928F92AF92CF92EF9286
:100810000F931F93CF93DF93CDB7DEB73C01162F15
:10082000842F5D854E853F859889F30184832583D8
:100830000683E782C086A1868286538744873587F0
:10084000968761E00E94B205F30185818F3F19F020
:1008500061E00E94B20561E0F30186810E94B20569
:10086000112319F0F301178603C080E1F301878794
:1008700020E041E060E1C301DF91CF911F910F9132
:10088000EF90CF90AF908F907F906F900C948D03EE
:100890008F92AF92CF92EF920F93DC0113961C923E
:1008A0001E921297ECE5F1E0ED93FC931F921F92DC
:1008B0001F921F928C2CAE2CC02EE22E042F2FEFF5
:1008C000462F61E00E9402040F900F900F900F904E
:1008D0000F91EF90CF90AF908F900895CF92DF92CD
:1008E000EF92FF920F931F93CF93DF9300D0CDB77A
:1008F000DEB78C01677088E0689FB00111246064E6
:10090000C80149835A830E9469034981C42E5A81D0
:10091000D52EE12CF12CD6016D916D01D801ED9110
:10092000FC910190F081E02DC8010995BFEFEB1A11
:10093000FB0AE8E0EE16F10471F70F900F90DF91DB
:10094000CF911F910F91FF90EF90DF90CF9008957E
:1009500041E00E94400381E090E008951F920F92D1
:100960000FB60F9211242F933F938F939F93AF93C2
:10097000BF938091790190917A01A0917B01B09110
:100980007C013091780123E0230F2D3720F401966C
:10099000A11DB11D05C026E8230F0296A11DB11DA2
:1009A000209378018093790190937A01A0937B0141
:1009B000B0937C0180917D0190917E01A0917F0197
:1009C000B09180010196A11DB11D80937D0190938E
:1009D0007E01A0937F01B0938001BF91AF919F9161
:1009E0008F913F912F910F900FBE0F901F901895F0
:1009F0003FB7F89480917D0190917E01A0917F0195
:100A0000B091800126B5A89B05C02F3F19F0019633
:100A1000A11DB11D3FBF6627782F892F9A2F620F26
:100A2000711D811D911D42E0660F771F881F991F60
:100A30004A95D1F70895CF92DF92EF92FF92CF932C
:100A4000DF936B017C010E94F804EB01C114D10417
:100A5000E104F10489F00E9471060E94F8046C1B05
:100A60007D0B683E734090F381E0C81AD108E1081D
:100A7000F108C851DC4FEACFDF91CF91FF90EF90A2
:100A8000DF90CF9008958230910538F0880F991F3C
:100A9000880F991F05970197F1F70895789484B509
:100AA000826084BD84B5816084BD85B5826085BD6A
:100AB00085B5816085BDEEE6F0E080818160808350
:100AC000E1E8F0E010828081826080838081816033
:100AD0008083E0E8F0E0808181608083E1EBF0E0FA
:100AE000808184608083E0EBF0E08081816080839E
:100AF000EAE7F0E080818460808380818260808387
:100B00008081816080838081806880831092C100B1
:100B10000895833081F028F4813099F08230A1F07B
:100B200008958730A9F08830B9F08430D1F48091ED
:100B300080008F7D03C0809180008F77809380003C
:100B4000089584B58F7702C084B58F7D84BD0895E4
:100B50008091B0008F7703C08091B0008F7D80932B
:100B6000B0000895CF93DF9390E0FC01E458FF4F6D
:100B70002491FC01E057FF4F8491882349F190E0D4
:100B8000880F991FFC01E255FF4FA591B4918C5538
:100B90009F4FFC01C591D4919FB7611108C0F89493
:100BA0008C91209582238C93888182230AC06230A5
:100BB00051F4F8948C91322F309583238C93888153
:100BC000822B888304C0F8948C91822B8C939FBFD6
:100BD000DF91CF9108950F931F93CF93DF931F92CF
:100BE000CDB7DEB7282F30E0F901E859FF4F8491E7
:100BF000F901E458FF4F1491F901E057FF4F0491B8
:100C00000023C9F0882321F069830E948905698146
:100C1000E02FF0E0EE0FFF1FEC55FF4FA591B491D0
:100C20009FB7F8948C91611103C01095812301C086
:100C3000812B8C939FBF0F90DF91CF911F910F91CC
:100C4000089508950E944E050E9421060E94870083
:100C5000C0E0D0E00E94B3022097E1F30E940000C0
:100C6000F9CFCF92DF92EF92FF920F931F93CF9322
:100C7000DF936C017A01EB01E60EF71E00E010E055
:100C8000CE15DF0561F06991D601ED91FC910190DF
:100C9000F081E02DC6010995080F191FF1CFC80199
:100CA000DF91CF911F910F91FF90EF90DF90CF9048
:100CB00008956115710581F0DB010D900020E9F7C1
:100CC000AD0141505109461B570BDC01ED91FC91E0
:100CD0000280F381E02D099480E090E008950C9467
:100CE00059060895EE0FFF1F0590F491E02D099429
:040CF000F894FFCFA6
:100CF400040A04150E04040A040A04040E15040A62
:100D040000000A0000000E1100000A0000110E008D
:100D1400000A1F1F1F0E0400480041005000590024
:100D24002000420049005200540044004D004E008F
:100D34004861707079204269727468646179004115
:100D44006D616E646121210000000000A804310679
:00000001FF
